82104149733   474843   0000000001120830HCQ50873408         FNT02007321                                                          
8220379144735120830120915000000000000010000000000000000000004011800000002407092EUR              0  69786839                     
8230368315691XKD1207170000000000000100000000000000000000040118000000024070920245083857       62452889120717SeiwDvdqvmt-Ytw      
8240303SN00910479            0000000016000PCE02000000236692500000002005912000000000000000022980000000040118                     
8220328033749120830120918000000000000010000000000000000000001504400000002407092EUR              0  69786839                     
8230352885105GPG1207200000000000000100000000000000000000015044000000009026625232966185       95067478120720SeiwDvdqvmt-Ytw      
8240303XC39678299            0000000006000PCE02000000395310300000000752222000000000000000097480000000015044                     
829030000001000000200000020000002000000000000000000000000000100000000000000055162000000066195020                                
